:020000040000fa
:080000000001040000000000f3
:020000040000fa
:100008009a0100009a0100009a0100009a0100007c
:100018009a0100009a0100009a0100009a0100006c
:100028009a0100009a0100009a0100009a0100005c
:100038009a0100009a0100009a0100009a0100004c
:100048009a0100009a0100009a0100009a0100003c
:100058009a0100009a0100009a0100009a0100002c
:100068009a0100009a0100009a0100009a0100001c
:100078009a0100009a0100009a0100009a0100000c
:100088009a0100009a0100009a0100000a05000088
:100098009a0100009a0100009a0100009a010000ec
:1000a8009a0100009a0100009a0100009a010000dc
:1000b8009a0100009a0100009a0100009a010000cc
:1000c8009a0100009a0100009a0100009a010000bc
:1000d8009a0100009a0100009a0100009a010000ac
:1000e8009a0100009a0100009a0100009a0100009c
:0800f8009a0100009a010000ca
:020000040000fa
:100108009a0100009a0100009a0100009a0100007b
:100118009a0100009a0100009a0100009a0100006b
:100128009a0100009a0100009a0100009a0100005b
:100138009a0100009a0100009a0100009a0100004b
:100148009a0100009a0100009a0100009a0100003b
:100158009a0100009a0100009a0100009a0100002b
:100168009a0100009a0100009a0100009a0100001b
:100178009a0100009a0100009a0100009a0100000b
:100188009a0100009a0100009a0100000a05000087
:100198009a0100009a0100009a0100009a010000eb
:1001a8009a0100009a0100009a0100009a010000db
:1001b8009a0100009a0100009a0100009a010000cb
:1001c8009a0100009a0100009a0100009a010000bb
:1001d8009a0100009a0100009a0100009a010000ab
:1001e8009a0100009a0100009a0100009a0100009b
:0801f8009a0100009a010000c9
:020000040000fa
:10020000cf9a20000e7f22000e018800000000001f
:10021000000020000000e000020032000001200089
:10022000200288000c000700c07d20000100200093
:1002300011000700000020000000e0000200320072
:100240000000020000000000940602000000000010
:100250000040da000000fe004440a9000000200039
:100260000000e0000300320000002000a001880030
:100270004440a8000000060091018800800078003a
:100280000000eb0015003700e280400032a0b4000f
:100290009101ba00e280400032a0b4009102ba009d
:1002a000e280400032a0b4000002eb00472bde00e9
:1002b000f507b200602ce10004003a000059eb00a1
:1002c0008301e900fdff3e00040037006128e100e2
:1002d000010032000082eb00040007001101ba00a7
:1002e0000200e000e8ff3a00000006003159ba00c1
:1002f0008301e9000c0032002159ba008301e900b2
:10030000080032000400e00003003a00e2804000f0
:1003100032a0b400f5ff370011d9ba008301e9001b
:10032000faff3a008100e800e180400032a0b4000a
:0c033000000006000040da000000fe00a3
:020000040000fa
:10033c000a00fa00240037008e00780000802000ac
:10034c003a0207009e02780004492100848f520073
:10035c0003003a000e0078005b0007001a0037001b
:10036c009e02780004592100848f520003003a0049
:10037c000e0078001b000700130037009e02780067
:10038c0004612100848f520003003a000e007800b3
:10039c00990007000c0037009e027800c4c72100aa
:1003ac008482620004012100848f520003003a0011
:1003bc000e0078000b00070003003700744a800021
:1003cc000402e800744a880000802000d501070070
:1003dc0000027800e00f5200d7ff3a000080fa00cc
:1003ec00000006000400fa00100798001e0290009e
:1003fc00c4029000050f780004002f009e026200da
:10040c0004002200848f520004003200c44a800091
:10041c000402e800c44a880025003700f4ff2000dd
:10042c009e026200f40f2000848f520004003e00f4
:10043c00d44a80000402e800d44a88001c0037002b
:10044c00f4ff20009e026200f42f2000848f5200e3
:10045c0003003e001e009000a202070014003700ab
:10046c00f4ff20009e026200f43f2000848f5200b3
:10047c0004003e00d44a80000402e800d44a8800fc
:10048c000b003700f4ff20009e026200f44f2000a6
:10049c00848f520003003e001e00900006000700ef
:1004ac0003003700d44a80000402e800d44a8800d4
:1004bc000080fa00000006000200fa00000f78002d
:1004cc000080fa00000006000400fa0010079800f3
:1004dc001e029000c4029000050f780004002f004b
:1004ec009e02620004002200848f5200040032003d
:1004fc00844a80000402e800844a88001300370014
:10050c00f4ff20009e026200f4072000848f52004a
:10051c0003003e001e0090000e0007000b00370089
:10052c00f4ff20009e026200f40f2000848f520022
:10053c0003003e001e0090007d0207000300370000
:10054c00944a80000402e800944a88000080fa0073
:10055c00000006000400fa00100798001e0290002c
:10056c00c4029000050f7800f4ff20001e0f6200fb
:10057c001e02780005002000560020000700200015
:10058c00860f5200878f5a0013003e000460010052
:10059c00050037000600370007003700130037004e
:1005ac0007003700090037007d02070010003700f4
:1005bc000000fe000e003700b30007000c003700ef
:1005cc000002eb00644a8800090037001400200088
:1005dc00644a880006003700a44a80000402e80040
:1005ec00a44a880000000000010037000000000051
:1005fc000080fa00000006000400fa0010079800c2
:10060c001e029000c4029000050f780004002f0019
:10061c009e02620004002200848f5200040032000b
:10062c00f44a80000402e800f44a880025003700f0
:10063c00f4ff20009e026200f40f2000848f520011
:10064c0004003e00044b80000402e800044b8800c8
:10065c001c003700f4ff20009e026200f42f2000e3
:10066c00848f520003003e001e00900048020700d9
:10067c0014003700f4ff20009e026200f43f2000bb
:10068c00848f520004003e00044b80000402e800fa
:10069c00044b88000b003700f4ff20009e02620020
:1006ac00f44f2000848f520003003e001e00900087
:1006bc000600070003003700d44a80000402e8005b
:1006cc00d44a88000080fa00000006000200fa00fc
:1006dc00000f78000080fa00000006000a00fa0003
:1006ec0044812a00040f78004498200014027800fa
:1006fc0014079800449820001402900024079800d6
:10070c00449820002402900034079800449820005c
:10071c003402900044079800e13520000e00780068
:10072c00710107000080fa00000006000200fa00c8
:10073c00000f78000060fe000080fa000000060048
:10074c001400fa00204f9800610798007207980077
:10075c00030f9800140f98002e4a90006f4262000d
:10076c00244f9800ae4a900004c2b30004c2720039
:10077c00244f98002e4a9000250020000522dd0011
:10078c00244f98002e4a90000482fb004322dd0087
:10079c00040f78009e02780004f02f00048262009f
:1007ac00040f78009e0278002e4a90000482fb0011
:1007bc0005027200040f78006e0290001407980076
:1007cc007e029000240798000e0a900034079800cf
:1007dc001e0a9000440798008e007800408a200082
:1007ec00000107000080fa00000006000000fa007b
:1007fc00544b8000474b8000364b8000254b8000cb
:10080c008701780006017800850078000040eb0035
:10081c00cbff0700944b8000874b8000764b800009
:10082c00654b800087017800060178008500780010
:10083c0010c0b300c2ff0700d44b8000c74b800030
:10084c00b64b8000a54b800087017800060178002c
:10085c008500780020c0b300b9ff0700144c80005d
:10086c00074c8000f64b8000e54b80008701780038
:10087c00060178008500780030c0b300b0ff070097
:10088c000080fa00000006000000fa00340020008e
:10089c0023002000120020008000eb0040c0b300b9
:1008ac00a7ff0700340120002301200012012000c3
:1008bc000101200050c0b300a1ff0700341020003c
:1008cc0023102000121020000110200060c0b30083
:1008dc009bff07000080fa00000006000000fa00f1
:1008ec008f60a9008760a9000405800004c0a100e6
:1008fc0004d0a10004e0a000040588000002eb0075
:10090c00b41c88009803a8009823a8009843a8005a
:10091c0098a3a80000802000fd000700408a20005a
:10092c00fb00070004402000841c8800000000002d
:10093c00851c8000040e20008482620004082000c4
:10094c00848f5200faff3a0014002000941c880097
:10095c0014392000a41c880004802100841988000c
:10096c00c4872100c41988000002eb000418880019
:10097c00847f2100c4188800847f2100041988001a
:10098c00847f2100441988000480200044188800ca
:10099c00040121008418880014002000741b8800b6
:1009ac0024002000f41a880034002000741a8800f7
:1009bc00040c2000241b8800040c2000a41a8800be
:1009cc00040c2000241a88000002eb00741c880020
:1009dc000002eb00f41b880004202000841c88001b
:1009ec0000000000851c8000040e20008482620040
:1009fc0004042000848f5200faff3a008f60a80094
:100a0c000080fa00000006003600f800809fbe004f
:100a1c00829fbe00849fbe00869fbe000a00fa0023
:100a2c008760a900751c8000040820000482620005
:100a3c00e00f520012003200741c80006102620050
:100a4c00e00f520008003200e13820000e00780060
:100a5c00500007003e029000444a88004e0290006d
:100a6c00544a880005003700e13820000e00780059
:100a7c00480007000e0078002cff07009603a90021
:100a8c00f51b80000408200004826200e00f520075
:100a9c0004003200e137200000802000260007000f
:100aac009623a900741b800068026200e00f5200bc
:100abc0009003a00408a20001a0007000002780062
:100acc00e00f520004003200e1362000408a200082
:100adc006f0007009643a900b51c8000040220009b
:100aec0004826200e00f52000100320096a3a900bc
:100afc000080fa004f03be004f02be004f01be0043
:100b0c004f00be003600f9000040060010019000b6
:100b1c0090007800010051000000e900f000b200e4
:100b2c000000060010019000900078000280500038
:100b3c00f000b200000006001170a600140037008f
:100b4c00900190001001e800f200b2000310e100e7
:100b5c000e003200100178006a11b800e401400068
:100b6c00828141006e81500092197800660141002b
:100b7c00b2197800b2197800b2197800b21978005d
:100b8c001001e800f200b200020878001170a10018
:100b9c00000006001170a600090037006e8150009d
:100bac00121878006601410032187800321878006b
:100bbc0032187800321878001170a1000800370044
:100bcc00827f2100021878000200200002187800b1
:100bdc000218780002187800021878002b003700f1
:100bec0000000600900190001001e800f200b20035
:100bfc000310e1000c003200100178006a11b800fb
:100c0c00e401400082814100b1197800b1197800eb
:100c1c00b1197800b1197800b11978001001e80009
:100c2c00f200b200020878000000060010019000eb
:100c3c00900178000310e10008003a00837f210046
:100c4c00831878000300200083187800831878003c
:100c5c0083187800831878000c0037006a11b800ec
:100c6c006401410000014100b2187800b21878000c
:100c7c00b2187800b2187800b21878001001900001
:100c8c000201e800f200b200120098000000060019
:100c9c001130a7001300370010019000900178006c
:100cac000310e1000f0032006a11b800640141002a
:100cbc0000014100ee815000b2097800e68141004c
:100ccc00b2197800b2197800b2197800b21978000c
:100cdc001130a000100190000201e800f200b200f7
:100cec0012009800000006001130a1006e81500027
:100cfc00300978006601410030197800301978000d
:100d0c0030197800301978001130a000000006006e
:100d1c000018eb000008eb00000006000000fa00d1
:100d2c000002eb00044d88000002eb00144d88001b
:100d3c00eafe070004892a00644c88000002eb00dc
:100d4c00744c880014002000844c8800240020007f
:100d5c00944c880034002000a44c8800c1982000da
:100d6c00408a20009fff070004012b00644c880080
:100d7c0004012000744c880014012000844c88006d
:100d8c0024012000944c880034012000a44c8800dd
:100d9c00c1982000408a200092ff070004092a0015
:100dac00644c880004022000744c8800140220005b
:100dbc00844c880024022000944c880034022000cb
:100dcc00a44c8800c1982000408a200085ff0700b1
:100ddc0004012000644c880004032000744c88003b
:100dec0014032000844c880024032000944c8800b9
:100dfc0034032000a44c8800c1982000408a2000b5
:100e0c0078ff070004012400644c880004042000cf
:100e1c00744c880014042000844c880024042000a6
:100e2c00944c880034042000a44c8800c198200005
:100e3c00408a20006bff070044812a00644c880024
:100e4c0004052000744c880014052000844c880094
:100e5c0024052000944c880034052000a44c880004
:100e6c00c1982000408a20005eff070004892a00f8
:100e7c00644c880004062000744c88001406200082
:100e8c00844c880024062000944c880034062000f2
:100e9c00a44c8800c1982000408a200051ff070014
:100eac0004892a00644c880004072000744c8800d4
:100ebc0014072000844c880024072000944c8800e0
:100ecc0034072000a44c8800c1982000408a2000e0
:100edc0044ff07008760a8000002eb00044d880067
:100eec00ffff37000400fa00100798001e02900064
:100efc00c4029000050f7800f4ff20001e0f620062
:100f0c009e02780004102400848f520005003200e9
:100f1c00e44a80000402e800e44a88000000000073
:100f2c0001003700000000000080fa0000000600fd
:100f3c000400fa00100798001e029000c4029000f2
:100f4c00050f7800f4ff20001e0f62001e027800cf
:100f5c0005082400850f52000800320015082400f3
:100f6c00850f520007003200b44a80000402e800ea
:100f7c00b44a8800000000000300370000000000a5
:100f8c0001003700000000000080fa00000006009d
:100f9c000200fa00000f78000080fa000000060042
:0c0fac000000fa000080fa0000000600bf
:020000040000fa
:100fb8008c0900002000000000000000000800006c
:0c0fc8008c010000000000000000000090
:020000040000fa
:0200000401f009
:04000000ecbb000055
:020000040000fa
:0200000401f009
:04000400c1ff000038
:020000040000fa
:0200000401f009
:040008004cff0000a9
:020000040000fa
:0200000401f009
:04000c00ffff0000f2
:020000040000fa
:0200000401f009
:04001000ffff0000ee
:020000040000fa
:0200000401f009
:04001400ffff0000ea
:020000040000fa
:0200000401f009
:04001800ffff0000e6
:00000001FF
