:020000040000fa
:080000000001040000000000f3
:020000040000fa
:100008009a0100009a0100009a0100009a0100007c
:100018009a0100009a0100009a0100009a0100006c
:100028009a0100009a0100009a0100009a0100005c
:100038009a0100009a0100009a0100009a0100004c
:100048009a0100009a0100009a0100009a0100003c
:100058009a0100009a0100009a0100009a0100002c
:100068009a0100009a0100009a0100009a0100001c
:100078009a0100009a0100009a0100009a0100000c
:100088009a0100009a0100009a010000760500001c
:100098009a0100009a0100009a0100009a010000ec
:1000a8009a0100009a0100009a0100009a010000dc
:1000b8009a0100009a0100009a0100009a010000cc
:1000c8009a0100009a0100009a0100009a010000bc
:1000d8009a0100009a0100009a0100009a010000ac
:1000e8009a0100009a0100009a0100009a0100009c
:0800f8009a0100009a010000ca
:020000040000fa
:100108009a0100009a0100009a0100009a0100007b
:100118009a0100009a0100009a0100009a0100006b
:100128009a0100009a0100009a0100009a0100005b
:100138009a0100009a0100009a0100009a0100004b
:100148009a0100009a0100009a0100009a0100003b
:100158009a0100009a0100009a0100009a0100002b
:100168009a0100009a0100009a0100009a0100001b
:100178009a0100009a0100009a0100009a0100000b
:100188009a0100009a0100009a010000760500001b
:100198009a0100009a0100009a0100009a010000eb
:1001a8009a0100009a0100009a0100009a010000db
:1001b8009a0100009a0100009a0100009a010000cb
:1001c8009a0100009a0100009a0100009a010000bb
:1001d8009a0100009a0100009a0100009a010000ab
:1001e8009a0100009a0100009a0100009a0100009b
:0801f8009a0100009a010000c9
:020000040000fa
:100200000f9c20000e7f22000e01880000000000dd
:10021000000020000000e000020032000001200089
:10022000200288000c000700e07f20000100200071
:1002300011000700000020000000e0000200320072
:1002400000000200000000009e0702000000000005
:100250000040da000000fe004440a9000000200039
:100260000000e0000300320000002000a001880030
:100270004440a8000000060091018800800078003a
:100280000000eb0015003700e280400032a0b4000f
:100290009101ba00e280400032a0b4009102ba009d
:1002a000e280400032a0b4000002eb00472bde00e9
:1002b000f507b200602ce10004003a000059eb00a1
:1002c0008301e900fdff3e00040037006128e100e2
:1002d000010032000082eb00040007001101ba00a7
:1002e0000200e000e8ff3a00000006003159ba00c1
:1002f0008301e9000c0032002159ba008301e900b2
:10030000080032000400e00003003a00e2804000f0
:1003100032a0b400f5ff370011d9ba008301e9001b
:10032000faff3a008100e800e180400032a0b4000a
:0c033000000006000040da000000fe00a3
:020000040000fa
:10033c000a00fa002e0037008e00780000802000a2
:10034c007f0207009e0278008407200084826200ee
:10035c0004022000848f520004003200144c8000f0
:10036c000402e800144c8800210037009e0278003b
:10037c00044a2100848f520003003a000e007800da
:10038c00570007001a0037009e027800045a21001b
:10039c00848f520003003a000e0078001b00070007
:1003ac00130037009e02780004622100848f5200f3
:1003bc0003003a000e007800950007000c0037008f
:1003cc009e027800c4c721008482620004022100ce
:1003dc00848f520003003a000e0078000b000700d7
:1003ec0003003700f44b80000402e800f44b880053
:1003fc00008020001002070000027800e00f52007d
:10040c00cdff3a000080fa00000006000400fa005c
:10041c00100798001e029000c4029000050f78008f
:10042c0004002f009e02620004002400848f5200fe
:10043c0004003200044c80000402e800044c8800e4
:10044c0025003700f4ff20009e026200f40f20000c
:10045c00848f520004003e00744c80000402e800bb
:10046c00744c88001c003700f4ff20009e026200d0
:10047c00f42f2000848f520003003e001e009000d9
:10048c006b02070014003700f4ff20009e0262008c
:10049c00f43f2000848f520004003e00744c800016
:1004ac000402e800744c88000b003700f4ff2000b5
:1004bc009e026200f44f2000848f520003003e0025
:1004cc001e0090008700070003003700744c80006a
:1004dc000402e800744c88000080fa00000006005a
:1004ec000400fa00100798001e029000c40290004d
:1004fc00050f780004002f009e0262000400240007
:10050c00848f520004003200044c80000402e80086
:10051c00044c880013003700f4ff20009e02620098
:10052c00f4072000848f520003003e001e00900050
:10053c000e0007000b003700f4ff20009e02620043
:10054c00f40f2000848f520003003e001e00900028
:10055c004b02070003003700444c80000402e80003
:10056c00444c88000080fa00000006000400fa00e9
:10057c00100798001e029000c4029000050f78002e
:10058c00f4ff20001e0f62001e0278000500200000
:10059c005600200007002000860f5200878f5a005b
:1005ac0013003e0004600100050037000600370010
:1005bc000700370013003700070037000900370029
:1005cc0058020700100037000000fe000e00370034
:1005dc00ea0007000c0037000002eb00644a8800b8
:1005ec000900370014002000644a88000600370018
:1005fc00544c80000402e800544c880000000000b9
:10060c0001003700000000000080fa000000060026
:10061c000400fa00100798001e029000c40290001b
:10062c00050f780004002f009e02620004002400d5
:10063c00848f520004003200044c80000402e80055
:10064c00044c880025003700f4ff20009e02620055
:10065c00f40f2000848f520004003e00944c800064
:10066c000402e800944c88001c003700f4ff2000c2
:10067c009e026200f42f2000848f520003003e0083
:10068c001e0090001b02070014003700f4ff20002e
:10069c009e026200f43f2000848f520004003e0052
:1006ac00944c80000402e800944c88000b00370046
:1006bc00f4ff20009e026200f44f2000848f520051
:1006cc0003003e001e0090000a00070003003700e4
:1006dc00744c80000402e800744c88000080fa001e
:1006ec00000006000200fa00000f78000080fa00fb
:1006fc00000006000200fa00000f78000080fa00eb
:10070c00000006000a00fa0044822a00040f780058
:10071c008499200014027800140798008499200012
:10072c001402900024079800849920002402900061
:10073c0034079800849920003402900044079800f4
:10074c00e13520000e007800ac0107000080fa00b3
:10075c00000006000200fa00000f78000060fe00a6
:10076c000080fa00000006001400fa00204f9800e8
:10077c006107980072079800030f9800140f9800f7
:10078c002e4a90006f426200244f9800ae4a9000af
:10079c0004c4b30004c27200244f98002e4a900087
:1007ac00250020000522dd00244f98002e4a9000e1
:1007bc000482fb004322dd00040f78009e027800c7
:1007cc0004f02f0004826200040f78009e0278006f
:1007dc002e4a90000482fb0005027200040f780080
:1007ec006e029000140798007e0290002407980077
:1007fc000e0a9000340798001e0a900044079800d7
:10080c008e007800408a20003b0107000080fa002f
:10081c00000006000000fa00a44a8000974a8000fd
:10082c00864a8000754a80008701780006017800ae
:10083c00850078000040eb00cbff0700c64a800023
:10084c00b54a80000002eb008001eb000601780045
:10085c008500780010c0b300c3ff0700244b800054
:10086c00174b8000064b8000f54a8000870178000a
:10087c00060178008500780020c0b300baff07009d
:10088c00644b8000574b8000464b8000354b8000fa
:10089c0087017800060178008500780030c0b3002d
:1008ac00b1ff0700a44b8000974b8000864b800063
:1008bc00754b800087017800060178008500780070
:1008cc0040c0b300a8ff0700e44b8000d74b80006a
:1008dc00c64b8000b54b800087017800060178007c
:1008ec008500780050c0b3009fff0700244c8000a7
:1008fc00174c8000064c8000f54b80008701780077
:10090c000601780085007800c0c0b30096ff070090
:10091c00644c8000574c8000464c8000354c800065
:10092c00870178000601780085007800d0c0b300fc
:10093c008dff0700a44c8000974c8000864c8000f3
:10094c00754c8000870178000601780085007800de
:10095c00e0c0b30084ff0700b54c80000002eb0040
:10096c008001eb000001eb0085007800f0c0b300c3
:10097c007dff07000080fa00000006000000fa006e
:10098c003400200023002000120020008000eb0027
:10099c0060c0b30074ff0700340120002301200065
:1009ac00120120000101200070c0b3006eff07008f
:1009bc000080fa00000006000000fa008f60a90019
:1009cc008760a9000405800004c0a10004d0a10028
:1009dc0004e0a000040588000002eb00b41c8800b1
:1009ec009803a8009823a8009843a80098a3a800ef
:1009fc00008020000b010700408a2000090107003d
:100a0c0004c02000841c880000000000851c8000ad
:100a1c00040e20008482620004082000848f52009f
:100a2c00faff3a0044002000941c8800345a20003d
:100a3c00a41c88001480210084198800d48721000c
:100a4c00c41988000002eb00041888000480200000
:100a5c00441888000402210084188800c47f2100f7
:100a6c00c4188800c47f210004198800c47f2100a9
:100a7c004419880014002000741b880024002000f6
:100a8c00f41a880034002000741a8800040c20002a
:100a9c00241b8800040c2000a41a8800040c2000dd
:100aac00241a88000002eb00741c88000002eb0082
:100abc00f41b880004802000841c880000000000c7
:100acc00851c8000040e200004826200e00f52009e
:100adc00fbff3a008f60a8000080fa0000000600bf
:100aec003600f800809fbe00829fbe00849fbe002f
:100afc00869fbe000a00fa008760a900751c800062
:100b0c000408200004826200e00f5200180032003a
:100b1c00741c800061026200e00f52000b003a006e
:100b2c00e13820000e0078005f0007003e029000c4
:100b3c00444a88004e029000544a8800b44c80000d
:100b4c000402e800b44c880008003700e1382000ab
:100b5c000e00780054000700b44c80000402e8003a
:100b6c00b44c88000e007800fafe07009603a9002a
:100b7c00f51b80000408200004826200e00f520084
:100b8c0007003200e1372000008020002f00070012
:100b9c00b44c80000402e800b44c88009623a900f1
:100bac00741b800068026200e00f52000c003a00d7
:100bbc00408a20002000070000027800e00f52005d
:100bcc0007003200e1362000408a20007500070043
:100bdc00b44c80000402e800b44c88009643a90091
:100bec00b51c80000402200004826200e00f520059
:100bfc0004003200344c80000402e800344c8800bd
:100c0c0096a3a9000080fa004f03be004f02be005d
:100c1c004f01be004f00be003600f9000040060038
:100c2c001001900090007800010051000000e900d4
:100c3c00f000b20000000600100190009000780057
:100c4c0002805000f000b200000006001170a600f7
:100c5c0014003700900190001001e800f200b2007f
:100c6c000310e1000e003200100178006a11b80088
:100c7c00e4014000828141006e815000921978009d
:100c8c0066014100b2197800b2197800b2197800e7
:100c9c00b21978001001e800f200b20002087800e6
:100cac001170a100000006001170a60009003700a9
:100cbc006e815000121878006601410032187800dd
:100ccc003218780032187800321878001170a100b0
:100cdc0008003700827f21000218780002002000f3
:100cec0002187800021878000218780002187800b0
:100cfc002b00370000000600900190001001e80066
:100d0c00f200b2000310e1000c0032001001780078
:100d1c006a11b800e401400082814100b1197800e9
:100d2c00b1197800b1197800b1197800b1197800af
:100d3c001001e800f200b200020878000000060082
:100d4c0010019000900178000310e10008003a00b7
:100d5c00837f21008318780003002000831878001b
:100d6c008318780083187800831878000c003700fb
:100d7c006a11b8006401410000014100b21878000a
:100d8c00b2187800b2187800b2187800b21878004f
:100d9c00100190000201e800f200b200120098006d
:100dac00000006001130a70013003700100190005e
:100dbc00900178000310e1000f0032006a11b800b6
:100dcc006401410000014100ee815000b20978003d
:100ddc00e6814100b2197800b2197800b219780096
:100dec00b21978001130a000100190000201e80047
:100dfc00f200b20012009800000006001130a100b1
:100e0c006e8150003009780066014100301978007d
:100e1c003019780030197800301978001130a000a2
:100e2c00000006000018eb000008eb0000000600b4
:100e3c000400fa00100798001e029000c4029000f3
:100e4c00050f78009e02780004102400848f520055
:100e5c0005003a001e029000940290008499200034
:100e6c002502980004003700844c80000402e8003e
:100e7c00844c8800000000000080fa00000006008e
:100e8c000400fa00100798001e029000c4029000a3
:100e9c00050f7800f4ff20001e0f62001e02780080
:100eac0005082400850f52000400320015082400a8
:100ebc00850f52000500320008003700849920008d
:100ecc008002eb003502980008003700849920005e
:100edc008082eb003502980004003700644c8000df
:100eec000402e800644c8800000000000080fa0056
:100efc00000006000400fa00100798001e02900083
:100f0c00c4029000050f7800f4ff20001e0f620051
:100f1c00a44c80000402e800a44c88000080fa0075
:100f2c00000006000000fa000080fa000000060035
:100f3c000200fa000002eb00040f78000002eb0044
:100f4c00a44d88000002eb00b44d88009afe070007
:100f5c0054fb2500840888006489290064088800f3
:100f6c000002eb003408880084c0a9008cc0a900e2
:100f7c0011e1a800849920008002eb00050a78009a
:100f8c00849920008082eb00050a78008499200067
:100f9c008002eb00250298008499200015002000a7
:100fac0035029800e9c2a900e5c2a9002504800019
:100fbc000404200004826200e00f52000a00320098
:100fcc00451780000400240004826200e00f5200e8
:100fdc0002003200e9c2a90001003700e9c2a800f2
:100fec0084c0a9001e0fe800d1fc0700efff3700fa
:020000040000fa
:100ffc00a009000020000000000000000008000014
:0c100c00a0010000000000000000000037
:020000040000fa
:0200000401f009
:04000000ecbb000055
:020000040000fa
:0200000401f009
:04000400c17f0000b8
:020000040000fa
:0200000401f009
:040008004cff0000a9
:020000040000fa
:0200000401f009
:04000c00ffff0000f2
:020000040000fa
:0200000401f009
:04001000ffff0000ee
:020000040000fa
:0200000401f009
:04001400ffff0000ea
:020000040000fa
:0200000401f009
:04001800ffff0000e6
:00000001FF
