:020000040000fa
:080000000001040000000000f3
:020000040000fa
:100008009a0100009a0100009a0100009a0100007c
:100018009a0100009a0100009a0100009a0100006c
:100028009a0100009a0100009a0100009a0100005c
:100038009a0100009a0100009a0100009a0100004c
:100048009a0100009a0100009a0100009a0100003c
:100058009a0100009a0100009a0100009a0100002c
:100068009a0100009a0100009a0100009a0100001c
:100078009a0100009a0100009a0100009a0100000c
:100088009a0100009a0100009a0100009a010000fc
:100098009a0100009a0100009a0100009a010000ec
:1000a8009a0100009a0100009a0100009a010000dc
:1000b8009a0100009a0100008a0500009a010000d8
:1000c8009a0100009a0100009a0100009a010000bc
:1000d8009a0100009a0100009a0100009a010000ac
:1000e8009a0100009a0100009a0100009a0100009c
:0800f8009a0100009a010000ca
:020000040000fa
:100108009a0100009a0100009a0100009a0100007b
:100118009a0100009a0100009a0100009a0100006b
:100128009a0100009a0100009a0100009a0100005b
:100138009a0100009a0100009a0100009a0100004b
:100148009a0100009a0100009a0100009a0100003b
:100158009a0100009a0100009a0100009a0100002b
:100168009a0100009a0100009a0100009a0100001b
:100178009a0100009a0100009a0100009a0100000b
:100188009a0100009a0100009a0100009a010000fb
:100198009a0100009a0100009a0100009a010000eb
:1001a8009a0100009a0100009a0100009a010000db
:1001b8009a0100009a0100008a0500009a010000d7
:1001c8009a0100009a0100009a0100009a010000bb
:1001d8009a0100009a0100009a0100009a010000ab
:1001e8009a0100009a0100009a0100009a0100009b
:0801f8009a0100009a010000c9
:020000040000fa
:100200006f9c20000e7f22000e018800000000007d
:10021000000020000000e000020032000001200089
:10022000200288000c0007008082200001002000ce
:1002300011000700000020000000e0000200320072
:100240000000020000000000c407020000000000df
:100250000040da000000fe004440a9000000200039
:100260000000e0000300320000002000a001880030
:100270004440a8000000060091018800800078003a
:100280000000eb0015003700e280400032a0b4000f
:100290009101ba00e280400032a0b4009102ba009d
:1002a000e280400032a0b4000002eb00472bde00e9
:1002b000f507b200602ce10004003a000059eb00a1
:1002c0008301e900fdff3e00040037006128e100e2
:1002d000010032000082eb00040007001101ba00a7
:1002e0000200e000e8ff3a00000006003159ba00c1
:1002f0008301e9000c0032002159ba008301e900b2
:10030000080032000400e00003003a00e2804000f0
:1003100032a0b400f5ff370011d9ba008301e9001b
:10032000faff3a008100e800e180400032a0b4000a
:0c033000000006000040da000000fe00a3
:020000040000fa
:10033c000a00fa002e0037008e00780000802000a2
:10034c00920207009e0278008407200084826200db
:10035c0004022000848f520004003200144c8000f0
:10036c000402e800144c8800210037009e0278003b
:10037c00044a2100848f520003003a000e007800da
:10038c00570007001a0037009e027800045a21001b
:10039c00848f520003003a000e0078001b00070007
:1003ac00130037009e02780004622100848f5200f3
:1003bc0003003a000e007800950007000c0037008f
:1003cc009e027800c4c721008482620004022100ce
:1003dc00848f520003003a000e0078000b000700d7
:1003ec0003003700f44b80000402e800f44b880053
:1003fc00008020002302070000027800e00f52006a
:10040c00cdff3a000080fa00000006000400fa005c
:10041c00100798001e029000c4029000050f78008f
:10042c0004002f009e02620004002400848f5200fe
:10043c0004003200044c80000402e800044c8800e4
:10044c0025003700f4ff20009e026200f40f20000c
:10045c00848f520004003e00744c80000402e800bb
:10046c00744c88001c003700f4ff20009e026200d0
:10047c00f42f2000848f520003003e001e009000d9
:10048c007e02070014003700f4ff20009e02620079
:10049c00f43f2000848f520004003e00744c800016
:1004ac000402e800744c88000b003700f4ff2000b5
:1004bc009e026200f44f2000848f520003003e0025
:1004cc001e0090008700070003003700744c80006a
:1004dc000402e800744c88000080fa00000006005a
:1004ec000400fa00100798001e029000c40290004d
:1004fc00050f780004002f009e0262000400240007
:10050c00848f520004003200044c80000402e80086
:10051c00044c880013003700f4ff20009e02620098
:10052c00f4072000848f520003003e001e00900050
:10053c000e0007000b003700f4ff20009e02620043
:10054c00f40f2000848f520003003e001e00900028
:10055c005e02070003003700444c80000402e800f0
:10056c00444c88000080fa00000006000400fa00e9
:10057c00100798001e029000c4029000050f78002e
:10058c00f4ff20001e0f62001e0278000500200000
:10059c005600200007002000860f5200878f5a005b
:1005ac0013003e0004600100050037000600370010
:1005bc000700370013003700070037000900370029
:1005cc006b020700100037000000fe000e00370021
:1005dc00f40007000c0037000002eb00644a8800ae
:1005ec000900370014002000644a88000600370018
:1005fc00544c80000402e800544c880000000000b9
:10060c0001003700000000000080fa000000060026
:10061c000400fa00100798001e029000c40290001b
:10062c00050f780004002f009e02620004002400d5
:10063c00848f520004003200044c80000402e80055
:10064c00044c880025003700f4ff20009e02620055
:10065c00f40f2000848f520004003e00944c800064
:10066c000402e800944c88001c003700f4ff2000c2
:10067c009e026200f42f2000848f520003003e0083
:10068c001e0090002e02070014003700f4ff20001b
:10069c009e026200f43f2000848f520004003e0052
:1006ac00944c80000402e800944c88000b00370046
:1006bc00f4ff20009e026200f44f2000848f520051
:1006cc0003003e001e0090000a00070003003700e4
:1006dc00744c80000402e800744c88000080fa001e
:1006ec00000006000200fa00000f78000080fa00fb
:1006fc00000006000200fa00000f78000080fa00eb
:10070c00000006000a00fa0044822a00040f780058
:10071c00e49920001402780014079800e499200052
:10072c001402900024079800e49920002402900001
:10073c0034079800e4992000340290004407980094
:10074c00e14120000e007800bf0107000080fa0094
:10075c00000006000200fa00000f78000060fe00a6
:10076c000080fa00000006001400fa005007980000
:10077c006107980072079800030f9800140f9800f7
:10078c005e0290006f02620054079800de02900037
:10079c000404200005027200540798005e029000c9
:1007ac000402420054079800de029000046020000e
:1007bc0005027200540798005e0290004222dd0090
:1007cc00540798005e029000040f78009e02780097
:1007dc0004f02f0004826200040f78001e027800df
:1007ec004322dd00040f78009e0278005e03900027
:1007fc00f40f20000402630005027200040f78005d
:10080c001e0a9000140798000e0a90002407980006
:10081c007e029000340798006e0290004407980006
:10082c008e007800408a2000460107000080fa0004
:10083c00000006000000fa00a44a8000974a8000dd
:10084c00864a8000754a800087017800060178008e
:10085c00850078000000eb00c3ff0700c64a80004b
:10086c00b54a80000002eb008001eb000601780025
:10087c008500780010002000bbff0700244b80008f
:10088c00174b8000064b8000f54a800087017800ea
:10089c00060178008500780020002000b2ff0700d8
:1008ac00644b8000574b8000464b8000354b8000da
:1008bc008701780006017800850078003000200060
:1008cc00a9ff0700a44b8000974b8000864b80004b
:1008dc00754b800087017800060178008500780050
:1008ec0040002000a0ff0700e44b8000d74b8000a5
:1008fc00c64b8000b54b800087017800060178005c
:10090c00850078005000200097ff0700244c8000e1
:10091c00174c8000064c8000f54b80008701780056
:10092c000601780085007800800020008eff07000b
:10093c00644c8000574c8000464c8000354c800045
:10094c00870178000601780085007800900020006f
:10095c0085ff0700a44c8000974c8000864c8000db
:10096c00754c8000870178000601780085007800be
:10097c00a00020007cff0700e44c8000d74c8000d6
:10098c00c64c8000b54c80008701780006017800c9
:10099c0085007800b000200073ff07000080fa008b
:1009ac00000006000000fa003400200023002000a4
:1009bc00120020008000eb00600020006aff07009e
:1009cc00340120002301200012012000010120002d
:1009dc007000200064ff07000080fa000000060091
:1009ec000000fa0090c0a90088c0a900340580005e
:1009fc000480a1000490a10004a0a000340588008c
:100a0c000002eb00b42288005804a8005824a80067
:100a1c005844a80058a4a800008020001401070026
:100a2c00408a200012010700044020008422880024
:100a3c000000000085228000040e200084826200e9
:100a4c0004082000848f5200faff3a0014002000a2
:100a5c009422880014392000a422880014802100dc
:100a6c00841f8800d4872100c41f88000002eb007b
:100a7c00041e880004802000441e8800040221000b
:100a8c00841e8800c47f2100c41e8800c47f2100fe
:100a9c00041f8800c47f2100441f8800140020001c
:100aac007421880024002000f420880034002000e9
:100abc0074208800040c200024218800040c2000e1
:100acc00a4208800040c2000242088000002eb00e5
:100adc00742288000002eb00f42188000002eb0075
:100aec00842288000000000085228000040e200073
:100afc0004826200e00f5200fbff3a0090c0a80095
:100b0c000080fa00000006003600f800809fbe004e
:100b1c00829fbe00849fbe00869fbe000a00fa0022
:100b2c0088c0a9007522800004082000048262009d
:100b3c00e00f52001b003200c44c80000402e8009d
:100b4c00c44c88007422800061026200e00f5200e5
:100b5c000b003a00e14420000e007800650007000d
:100b6c003e029000444a88004e029000544a88008d
:100b7c00b44c80000402e800b44c88000800370034
:100b8c00e14420000e0078005a000700b44c8000ad
:100b9c000402e800b44c88000e007800edfe07005b
:100bac005604a900f521800004082000048262008c
:100bbc00e00f52000a003200d44c80000402e8001e
:100bcc00d44c8800e1432000008020003200070054
:100bdc00b44c80000402e800b44c88005624a900f0
:100bec007421800068026200e00f52000f003a008e
:100bfc00408a20002300070000027800e00f52001a
:100c0c000a003200e44c80000402e800e44c880046
:100c1c00e1422000408a200075000700b44c80009f
:100c2c000402e800b44c88005644a900b5228000a8
:100c3c000402200004826200e00f52000400320023
:100c4c00344c80000402e800344c880056a4a900ff
:100c5c000080fa004f03be004f02be004f01be00e1
:100c6c004f00be003600f900004006001001900055
:100c7c0090007800010051000000e900f000b20083
:100c8c0000000600100190009000780002805000d7
:100c9c00f000b200000006001170a600140037002e
:100cac00900190001001e800f200b2000310e10086
:100cbc000e003200100178006a11b800e401400007
:100ccc00828141006e8150009219780066014100ca
:100cdc00b2197800b2197800b2197800b2197800fc
:100cec001001e800f200b200020878001170a100b7
:100cfc00000006001170a600090037006e8150003c
:100d0c001218780066014100321878003218780009
:100d1c0032187800321878001170a10008003700e2
:100d2c00827f21000218780002002000021878004f
:100d3c000218780002187800021878002b0037008f
:100d4c0000000600900190001001e800f200b200d3
:100d5c000310e1000c003200100178006a11b80099
:100d6c00e401400082814100b1197800b11978008a
:100d7c00b1197800b1197800b11978001001e800a8
:100d8c00f200b2000208780000000600100190008a
:100d9c00900178000310e10008003a00837f2100e5
:100dac0083187800030020008318780083187800db
:100dbc0083187800831878000c0037006a11b8008b
:100dcc006401410000014100b2187800b2187800ab
:100ddc00b2187800b2187800b218780010019000a0
:100dec000201e800f200b2001200980000000600b8
:100dfc001130a7001300370010019000900178000b
:100e0c000310e1000f0032006a11b80064014100c8
:100e1c0000014100ee815000b2097800e6814100ea
:100e2c00b2197800b2197800b2197800b2197800aa
:100e3c001130a000100190000201e800f200b20095
:100e4c0012009800000006001130a1006e815000c5
:100e5c0030097800660141003019780030197800ab
:100e6c0030197800301978001130a000000006000d
:100e7c000018eb000008eb00000006000400fa006c
:100e8c00100798001e029000c4029000050f780015
:100e9c009e02780004102400848f520005003a0052
:100eac001e02900094029000e49920002502980004
:100ebc0004003700844c80000402e800844c880055
:100ecc00000000000080fa00000006000400fa0098
:100edc00100798001e029000c4029000050f7800c5
:100eec00f4ff20001e0f62001e027800050824008b
:100efc00850f52000400320015082400850f5200a3
:100f0c000500320008003700e49920008002eb0055
:100f1c003502980008003700e49920008082eb002d
:100f2c003502980004003700644c80000402e8008d
:100f3c00644c8800000000000080fa0000000600ed
:100f4c000400fa00100798001e029000c4029000e2
:100f5c00050f7800f4ff20001e0f6200a44c8000e7
:100f6c000402e800a44c88000080fa00000006008f
:100f7c000000fa000080fa00000006000200fa00ef
:100f8c000002eb00040f78000002eb00d44d880047
:100f9c000002eb00e44d880091fe070054fb250095
:100fac008408880064892900640888000002eb002a
:100fbc003408880084c0a9008cc0a90011e1a800e5
:100fcc00e49920008002eb00050a7800e4992000e7
:100fdc008082eb00050a7800e49920008002eb0087
:100fec0025029800e4992000150020003502980095
:100ffc00e9c2a900e5c2a900250480000404200070
:10100c0004826200e00f52000c0032004517800091
:10101c000400240004826200e00f5200020032003f
:10102c00e9c2a90001003700e9c2a80084c0a900e8
:10103c001e0fe800b3fd0700fefd0700bcfc070017
:04104c00edff37007d
:020000040000fa
:10105000a6090000200000000000000000080000b9
:0c106000a60100000000000000000000dd
:020000040000fa
:0200000401f009
:04000000ecbb000055
:020000040000fa
:0200000401f009
:04000400c17f0000b8
:020000040000fa
:0200000401f009
:040008004cff0000a9
:020000040000fa
:0200000401f009
:04000c00ffff0000f2
:020000040000fa
:0200000401f009
:04001000ffff0000ee
:020000040000fa
:0200000401f009
:04001400ffff0000ea
:020000040000fa
:0200000401f009
:04001800ffff0000e6
:00000001FF
