:020000040000fa
:080000000001040000000000f3
:020000040000fa
:100008009a0100009a0100009a0100009a0100007c
:100018009a0100009a0100009a0100009a0100006c
:100028009a0100009a0100009a0100009a0100005c
:100038009a0100009a0100009a0100009a0100004c
:100048009a0100009a0100009a0100009a0100003c
:100058009a0100009a0100009a0100009a0100002c
:100068009a0100009a0100009a0100009a0100001c
:100078009a0100009a0100009a0100009a0100000c
:100088009a0100009a0100009a0100009a010000fc
:100098009a0100009a0100009a0100009a010000ec
:1000a8009a0100009a0100009a0100009a010000dc
:1000b8009a0100009a010000d80400009a0100008b
:1000c8009a0100009a0100009a0100009a010000bc
:1000d8009a0100009a0100009a0100009a010000ac
:1000e8009a0100009a0100009a0100009a0100009c
:0800f8009a0100009a010000ca
:020000040000fa
:100108009a0100009a0100009a0100009a0100007b
:100118009a0100009a0100009a0100009a0100006b
:100128009a0100009a0100009a0100009a0100005b
:100138009a0100009a0100009a0100009a0100004b
:100148009a0100009a0100009a0100009a0100003b
:100158009a0100009a0100009a0100009a0100002b
:100168009a0100009a0100009a0100009a0100001b
:100178009a0100009a0100009a0100009a0100000b
:100188009a0100009a0100009a0100009a010000fb
:100198009a0100009a0100009a0100009a010000eb
:1001a8009a0100009a0100009a0100009a010000db
:1001b8009a0100009a010000d80400009a0100008a
:1001c8009a0100009a0100009a0100009a010000bb
:1001d8009a0100009a0100009a0100009a010000ab
:1001e8009a0100009a0100009a0100009a0100009b
:0801f8009a0100009a010000c9
:020000040000fa
:100200002fdf20000e7f22000e018800000000007a
:10021000000020000000e000020032000001200089
:10022000200288000c00070000752000010020005b
:1002300011000700000020000000e0000200320072
:100240000000020000000000b806020000000000ec
:100250000040da000000fe004440a9000000200039
:100260000000e0000300320000002000a001880030
:100270004440a8000000060091018800800078003a
:100280000000eb0015003700e280400032a0b4000f
:100290009101ba00e280400032a0b4009102ba009d
:1002a000e280400032a0b4000002eb00472bde00e9
:1002b000f507b200602ce10004003a000059eb00a1
:1002c0008301e900fdff3e00040037006128e100e2
:1002d000010032000082eb00040007001101ba00a7
:1002e0000200e000e8ff3a00000006003159ba00c1
:1002f0008301e9000c0032002159ba008301e900b2
:10030000080032000400e00003003a00e2804000f0
:1003100032a0b400f5ff370011d9ba008301e9001b
:10032000faff3a008100e800e180400032a0b4000a
:0c033000000006000040da000000fe00a3
:020000040000fa
:10033c000400fa00100798001e029000c4029000fe
:10034c00050f78009e02780004102400848f520060
:10035c0005003a001e02900094029000a4dc2000dc
:10036c002502980004003700e46d80000402e800c8
:10037c00e46d8800000000000080fa000000060018
:10038c000400fa00100798001e0290001402780076
:10039c004322de00040f78001e0278006f0f62000b
:1003ac00846d80000402e800846d88000080fa00ef
:1003bc00000006000e00fa00d60037006402470069
:1003cc0084007800e0cc2000280207002e02900068
:1003dc00140798001e0290004322de0014079800b8
:1003ec009e029000f40f2000048262001407980013
:1003fc001e0290006f026200eb0f5200aa003e003a
:10040c001e0290004422de00e20f52000700320070
:10041c00e40f520008003200e10f520009003a00cc
:10042c00a4862000040f78000700370004a82000e1
:10043c00040f78000400370084802000040f78003b
:10044c0001003700000000001e0290006f026200e5
:10045c0005002000b600200007002000860f520087
:10046c00878f5a00a8003e00046001000b00370083
:10047c0017003700230037002f0037003b003700f0
:10048c0047003700a2003700a100370051003700a9
:10049c005d0037006900370076003700ee029000ef
:1004ac001e027800050a7800de0290001e02780019
:1004bc0015029800ce0290001e02780025029800ca
:1004cc00be0290001e0278003502980091003700a1
:1004dc00ee0290001e02780045029800de029000a9
:1004ec001e02780055029800ce0290001e02780081
:1004fc0065029800be0290001e02780075029800fa
:10050c0084003700ee0290001e027800050a980065
:10051c00de0290001e027800150a9800ce029000b0
:10052c001e027800250a9800be0290001e02780078
:10053c00350a980077003700ee0290001e02780012
:10054c00450a9800de0290001e027800550a9800b9
:10055c00ce0290001e027800650a9800be02900040
:10056c001e027800750a98006a003700ee029000af
:10057c001e02780005129800de0290001e02780020
:10058c0015129800ce0290001e02780025129800d9
:10059c00be0290001e027800351298005d003700f4
:1005ac00ee0290001e02780045129800de029000c8
:1005bc001e02780055129800ce0290001e027800a0
:1005cc0065129800be0290001e0278007512980009
:1005dc0050003700ee0290001e027800051a9800b9
:1005ec00de0290001e027800151a9800ce029000d0
:1005fc001e027800251a9800be0290001e02780098
:10060c00351a980043003700ee0290001e02780065
:10061c00451a9800de0290001e027800551a9800c8
:10062c00ce0290001e027800651a9800be0290005f
:10063c001e027800751a980036003700ee02900002
:10064c001e027800451a9800de0290001e02780007
:10065c00551a9800ce0290001e027800651a980078
:10066c00be0290001e027800751a9800000000006f
:10067c0028003700ee0290001e02780045229800f8
:10068c00de0290001e02780055229800ce029000e7
:10069c001e02780065229800be0290001e027800af
:1006ac00752298001b0037001e029000c504200024
:1006bc00850f520004003200d5042000850f520033
:1006cc000a003200130037006e029000d45a8800e2
:1006dc005e029000f45a88004e029000045b880081
:1006ec003e029000145b88000a0037005e02900006
:1006fc00e44288004e029000f44288003e029000d2
:10070c00044388000300370000000000010037009c
:10071c0000000000e0cc2000060107000002780079
:10072c00e00f520025ff3a000080fa00000006009e
:10073c000a00fa00180037008e007800e0b720009d
:10074c004a0107009e02780044f82100848262006e
:10075c0044402100848f520003003a000e007800c0
:10076c00140007000c0037009e02780044f82100aa
:10077c008482620044502100848f520003003a00ae
:10078c000e007800fefe070003003700546d800059
:10079c000402e800546d8800e0b72000e500070073
:1007ac0000027800e00f5200e3ff3a000080fa00ec
:1007bc00000006000400fa00100798001e029000ca
:1007cc00c4029000050f7800f4ff20009e02620026
:1007dc00f40f2000848f520004003e00d46d800082
:1007ec000402e800d46d88001c003700f4ff2000e0
:1007fc009e026200f42f2000848f520003003e0002
:10080c001e009000cafe070014003700f4ff200001
:10081c009e026200f43f2000848f520004003e00d0
:10082c00d46d80000402e800d46d88000b00370002
:10083c00f4ff20009e026200f44f2000848f5200cf
:10084c0003003e001e009000060007000300370066
:10085c00d46d80000402e800d46d88000080fa009a
:10086c00000006000200fa00000f78000080fa0079
:10087c00000006000000fa0090c0a90088c0a90082
:10088c00340580000480a1000490a10004a0a00005
:10089c00340588000002eb00b42288005804a8003c
:1008ac005824a8005844a80058a4a800e0b7200079
:1008bc002701070060c2200025010700e0cc2000c2
:1008cc00230107000440200084228800000000005f
:1008dc0085228000040e200084826200040820001f
:1008ec00848f5200faff3a001400200094228800f2
:1008fc0014392000a422880014802100841f880051
:10090c0054802100c41f88000002eb00041e8800e4
:10091c0004802100441e880044002100841e8800ad
:10092c00c47f2100c41e8800c47f2100041f8800de
:10093c00c47f2100441f880014002000742188000b
:10094c0024002000f420880034002000742088004b
:10095c00040c200024218800040c2000a420880012
:10096c00040c2000242088000002eb007422880074
:10097c000002eb00f42188000002eb0084228800c6
:10098c000000000085228000040e2000048262001a
:10099c00e00f5200fbff3a0090c0a8000080fa0064
:1009ac00000006003600f800809fbe00829fbe004b
:1009bc00849fbe00869fbe000a00fa0088c0a90072
:1009cc00752280000408200004826200e00f5200af
:1009dc0019003200246e80000402e800246e8800a6
:1009ec007422800061026200e00f52000b003a009a
:1009fc00e14420000e007800700007003e029000d9
:100a0c00b46b88004e029000c46b8800146e80009a
:100a1c000402e800146e880006003700e144200050
:100a2c00e0cc200048000700146e80000402e800af
:100a3c00146e88005604a900f521800004082000db
:100a4c0004826200e00f520011003200346e80000c
:100a5c000402e800346e8800e1432000e0b7200077
:100a6c0039000700146e80000402e800146e880040
:100a7c008521800044f821008482620044502100ca
:100a8c00848f520001003a00b42180005624a90042
:100a9c007421800068026200e00f52000f003a00df
:100aac0060c220002300070000027800e00f520013
:100abc000a003200446e80000402e800446e880094
:100acc00e142200060c2200081000700146e80000b
:100adc000402e800146e88005644a900b522800078
:100aec000402200004826200e00f52000400320075
:100afc00946d80000402e800946d880056a4a9004f
:100b0c000080fa004f03be004f02be004f01be0032
:100b1c004f00be003600f9000040060010019000a6
:100b2c0090007800010051000000e900f000b200d4
:100b3c000000060010019000900078000280500028
:100b4c00f000b200000006001170a6001a00370079
:100b5c00e40140009309e800900190001001e800c6
:100b6c00f200b2000310e100100032001001780016
:100b7c006a11b800e8014000828141006e8150008a
:100b8c009219780066014100b2197800b219780008
:100b9c00b2197800b21978001001e800f200b20026
:100bac0002087800e60140009309e900e6014000e4
:100bbc009309e8001170a100000006001170a60056
:100bcc00090037006e815000121878006601410050
:100bdc003218780032187800321878003218780001
:100bec001170a10008003700827f210002187800e4
:100bfc000200200002187800021878000218780011
:100c0c00021878003100370000000600e4014000b3
:100c1c009309e800900190001001e800f200b20086
:100c2c000310e1000e003200100178006a11b800c8
:100c3c00e801400082814100b1197800b1197800b7
:100c4c00b1197800b1197800b11978001001e800d9
:100c5c00f200b20002087800e60140009309e900b6
:100c6c00e60140009309e800000006001001900026
:100c7c00900178000310e10008003a00837f210006
:100c8c0083187800030020008318780083187800fc
:100c9c0083187800831878000c0037006a11b800ac
:100cac006801410000014100b2187800b2187800c8
:100cbc00b2187800b2187800b218780010019000c1
:100ccc000201e800f200b2001200980000000600d9
:100cdc001130a7001300370010019000900178002c
:100cec000310e1000f0032006a11b80068014100e6
:100cfc0000014100ee815000b2097800e68141000c
:100d0c00b2197800b2197800b2197800b2197800cb
:100d1c001130a000100190000201e800f200b200b6
:100d2c0012009800000006001130a1006e815000e6
:100d3c0030097800660141003019780030197800cc
:100d4c0030197800301978001130a000000006002e
:100d5c000018eb000018eb000018eb000008eb008b
:100d6c00000006000200fa000002eb00040f7800fd
:100d7c000002eb00346f88000002eb00446f880027
:100d8c00bcfe070054fb25008408880064892900f8
:100d9c00640888000002eb003408880084c0a900b5
:100dac008cc0a90011e1a800a4dc20008002eb009b
:100dbc00050a7800a4dc20008082eb00050a78008c
:100dcc00a4dc20008002eb0025029800a4dc2000ab
:100ddc001500200035029800e9c2a900e5c2a9005f
:100dec00250480000404200004826200e00f5200fd
:100dfc0025003200451780000400240004826200a4
:100e0c00e00f520002003200e9c2a90001003700d5
:100e1c00e9c2a80084c0a9001e0fe80004022c003f
:100e2c00946e880014082400d46e88000002eb0035
:100e3c00c46e88000002eb00b46e88000002eb0068
:100e4c00a46e880021dd200060c220006fff070027
:100e5c00048a2a00946e880004102400d46e880042
:100e6c000002eb00c46e88000002eb00b46e880038
:100e7c001e027800a46e880021dd200060c22000d4
:100e8c0062ff070088c0a80029fe070049fd070083
:040e9c00d3ff370049
:020000040000fa
:100ea000d20d000020000000000000007e0b0000ba
:100eb0005402000000000000000800007e03000053
:080ec00000000000000000002a
:020000040000fa
:0200000401f009
:04000000ecbb000055
:020000040000fa
:0200000401f009
:04000400c17f0000b8
:020000040000fa
:0200000401f009
:040008004cff0000a9
:020000040000fa
:0200000401f009
:04000c00ffff0000f2
:020000040000fa
:0200000401f009
:04001000ffff0000ee
:020000040000fa
:0200000401f009
:04001400ffff0000ea
:020000040000fa
:0200000401f009
:04001800ffff0000e6
:00000001FF
