:020000040000fa
:080000000001040000000000f3
:020000040000fa
:100008009a0100009a0100009a0100009a0100007c
:100018009a0100009a0100009a0100009a0100006c
:100028009a0100009a0100009a0100009a0100005c
:100038009a0100009a0100009a0100009a0100004c
:100048009a0100009a0100009a0100009a0100003c
:100058009a0100009a0100009a0100009a0100002c
:100068009a0100009a0100009a0100009a0100001c
:100078009a0100009a0100009a0100009a0100000c
:100088009a0100009a0100009a010000da020000bb
:100098009a0100009a0100009a0100009a010000ec
:1000a8009a0100009a0100009a0100009a010000dc
:1000b8009a0100009a0100009a0100009a010000cc
:1000c8009a0100009a0100009a0100009a010000bc
:1000d8009a0100009a0100009a0100009a010000ac
:1000e8009a0100009a0100009a0100009a0100009c
:0800f8009a0100009a010000ca
:020000040000fa
:100108009a0100009a0100009a0100009a0100007b
:100118009a0100009a0100009a0100009a0100006b
:100128009a0100009a0100009a0100009a0100005b
:100138009a0100009a0100009a0100009a0100004b
:100148009a0100009a0100009a0100009a0100003b
:100158009a0100009a0100009a0100009a0100002b
:100168009a0100009a0100009a0100009a0100001b
:100178009a0100009a0100009a0100009a0100000b
:100188009a0100009a0100009a010000da020000ba
:100198009a0100009a0100009a0100009a010000eb
:1001a8009a0100009a0100009a0100009a010000db
:1001b8009a0100009a0100009a0100009a010000cb
:1001c8009a0100009a0100009a0100009a010000bb
:1001d8009a0100009a0100009a0100009a010000ab
:1001e8009a0100009a0100009a0100009a0100009b
:0801f8009a0100009a010000c9
:020000040000fa
:100200000fa620000e7f22000e01880000000000d3
:10021000000020000000e000020032000001200089
:10022000200288000c000700606720000100200009
:1002300011000700000020000000e0000200320072
:1002400000000200000000006c030200000000003b
:100250000040da000000fe004440a9000000200039
:100260000000e0000300320000002000a001880030
:100270004440a8000000060091018800800078003a
:100280000000eb0015003700e280400032a0b4000f
:100290009101ba00e280400032a0b4009102ba009d
:1002a000e280400032a0b4000002eb00472bde00e9
:1002b000f507b200602ce10004003a000059eb00a1
:1002c0008301e900fdff3e00040037006128e100e2
:1002d000010032000082eb00040007001101ba00a7
:1002e0000200e000e8ff3a00000006003159ba00c1
:1002f0008301e9000c0032002159ba008301e900b2
:10030000080032000400e00003003a00e2804000f0
:1003100032a0b400f5ff370011d9ba008301e9001b
:10032000faff3a008100e800e180400032a0b4000a
:0c033000000006000040da000000fe00a3
:020000040000fa
:10033c000a00fa00180037008e00780000802000b8
:10034c000d0207009e02780044f8210084826200ae
:10035c0044402100848f520003003a000e007800c4
:10036c00140007000c0037009e02780044f82100ae
:10037c008482620044502100848f520003003a00b2
:10038c000e0078004902070003003700844f8000fc
:10039c000402e800844f880000802000b4010700ac
:1003ac0000027800e00f5200e3ff3a000080fa00f0
:1003bc00000006000400fa00100798001e029000ce
:1003cc00c4029000050f7800f4ff20009e0262002a
:1003dc00f40f2000848f520004003e00f44f800084
:1003ec000402e800f44f88001c003700f4ff2000e2
:1003fc009e026200f42f2000848f520003003e0006
:10040c001e0090001802070014003700f4ff2000b3
:10041c009e026200f43f2000848f520004003e00d4
:10042c00f44f80000402e800f44f88000b00370002
:10043c00f4ff20009e026200f44f2000848f5200d3
:10044c0003003e001e00900006000700030037006a
:10045c00f44f80000402e800f44f88000080fa009a
:10046c00000006000200fa00000f78000080fa007d
:10047c00000006000000fa008f60a9008760a90048
:10048c000405800004c0a10004d0a10004e0a00079
:10049c00040588000002eb00b41c88009803a80037
:1004ac009823a8009843a80098a3a80000802000d7
:1004bc00ea010700408a2000e80107008094200030
:1004cc00e601070004402000841c880000000000a6
:1004dc00851c8000040e2000848262000408200029
:1004ec00848f5200faff3a0014002000941c8800fc
:1004fc0014392000a41c8800148021008419880061
:10050c0054802100c41988000002eb0004188800f4
:10051c0004802100441888004400210084188800bd
:10052c00c47f2100c4188800c47f210004198800ee
:10053c00c47f21004419880014002000741b88001b
:10054c0024002000f41a880034002000741a88005b
:10055c00040c2000241b8800040c2000a41a880022
:10056c00040c2000241a88000002eb00741c880084
:10057c000002eb00f41b880004202000841c88007f
:10058c0000000000851c8000040e200084826200a4
:10059c0004042000848f5200faff3a008f60a800f8
:1005ac000080fa00000006003600f800809fbe00b4
:1005bc00829fbe00849fbe00869fbe000a00fa0088
:1005cc008760a900751c800004082000048262006a
:1005dc00e00f520010003200741c800061026200b7
:1005ec00e00f520008003a00e13820000e007800bd
:1005fc003b0107003e029000644f88004e029000c1
:10060c00744f880003003700e138200080942000ec
:10061c001c0107009603a900f51b800004082000ac
:10062c0004826200e00f52000b003200e137200020
:10063c000080200013010700851b800044f8210076
:10064c008482620044502100848f520001003a00e1
:10065c00b41b80009623a900741b80006802620002
:10066c00e00f520009003a00408a20000001070008
:10067c0000027800e00f520004003200e136200046
:10068c00408a2000550107009643a900b51c800044
:10069c000402200004826200e00f520004003200c9
:1006ac00b44f80000402e800b44f880096a3a90060
:1006bc000080fa004f03be004f02be004f01be0087
:1006cc004f00be003600f900004006000000fa00a2
:1006dc000002eb00a45288000002eb00b452880028
:1006ec0064ff07000002eb00045288000002eb00dc
:1006fc00a4528800a452800044528800a452800066
:10070c000402e80034528800a45280000482e800fd
:10071c0024528800a45280006302420014528800c4
:10072c0001a42000408a20000101070004002400dd
:10073c000452880004012000a4528800a4528000b6
:10074c0044528800a45280000402e800345288000d
:10075c00a45280000482e80024528800a452800035
:10076c00630242001452880001a42000408a200039
:10077c00ef00070044822a00045288000402200083
:10078c00a4528800a452800044528800a4528000d5
:10079c000402e80034528800a45280000482e8006d
:1007ac0024528800a4528000630242001452880034
:1007bc0001a42000408a2000dd000700048a2a00e2
:1007cc000452880004032000a45288000440240032
:1007dc0044528800a45280000402e800345288007d
:1007ec00a45280000482e80024528800a4528000a5
:1007fc00630242001452880001a42000408a2000a9
:10080c00cb00070004022b000452880004042000d3
:10081c00a45288000410240044528800a452800082
:10082c000402e80034528800a45280000482e800dc
:10083c0024528800a45280006302420014528800a3
:10084c0001a42000408a2000b9000700040a2a00f5
:10085c000452880004052000a45288005400200093
:10086c0044528800a45280000402e80034528800ec
:10087c00a45280000482e80024528800a452800014
:10088c00630242001452880001a42000408a200018
:10089c00a70007000002eb000452880004062000a9
:1008ac00a4528800a452800044528800a4528000b4
:1008bc000402e80034528800a45280000482e8004c
:1008cc0024528800a4528000630242001452880013
:1008dc0001a42000408a2000950007000400240099
:1008ec000452880004072000a4528800a4528000ff
:1008fc0044528800a45280000402e800345288005c
:10090c00a45280000482e80024528800a452800083
:10091c00630242001452880001a42000408a200087
:10092c008300070044822a00045288000408200037
:10093c00a4528800a452800044528800a452800023
:10094c000402e80034528800a45280000482e800bb
:10095c0024528800a4528000630242001452880082
:10096c0001a42000408a200071000700048a2a009c
:10097c000452880004092000a452880004102400aa
:10098c0044528800a45280000402e80034528800cb
:10099c00a45280000482e80024528800a4528000f3
:1009ac00630242001452880001a42000408a2000f7
:1009bc005f000700048a2a0004528800040a200001
:1009cc00a45288000410240044528800a4528000d1
:1009dc000402e80034528800a45280000482e8002b
:1009ec0024528800a45280006302420014528800f2
:1009fc0001a42000408a20004d00070004022c00b6
:100a0c0004528800040b2000a45288000410240017
:100a1c0044528800a45280000402e800345288003a
:100a2c00a45280000482e80024528800a452800062
:100a3c00630242001452880001a42000408a200066
:100a4c003b0007008760a8000002eb00a45288005e
:100a5c0037fe0700feff3700100190009000780071
:100a6c00010051000000e900f000b2000000060097
:100a7c00100190009000780002805000f000b2004d
:100a8c00000006001170a6001400370090019000c1
:100a9c001001e800f200b2000310e1000e00320079
:100aac00100178006a11b800e40140008281410015
:100abc006e8150009219780066014100b2197800dd
:100acc00b2197800b2197800b21978001001e80058
:100adc00f200b200020878001170a10000000600bc
:100aec001170a600090037006e81500012187800b2
:100afc0066014100321878003218780032187800fc
:100b0c00321878001170a10008003700827f210094
:100b1c0002187800020020000218780002187800f1
:100b2c0002187800021878002b003700000006002d
:100b3c00900190001001e800f200b2000310e100f7
:100b4c000c003200100178006a11b800e40140007a
:100b5c0082814100b1197800b1197800b11978007f
:100b6c00b1197800b11978001001e800f200b20058
:100b7c000208780000000600100190009001780037
:100b8c000310e10008003a00837f210083187800ed
:100b9c0003002000831878008318780083187800ed
:100bac00831878000c0037006a11b800640141000a
:100bbc0000014100b2187800b2187800b218780021
:100bcc00b2187800b2187800100190000201e80009
:100bdc00f200b20012009800000006001130a700cd
:100bec001300370010019000900178000310e10011
:100bfc000f0032006a11b80064014100000141008d
:100c0c00ee815000b2097800e6814100b2197800fb
:100c1c00b2197800b2197800b21978001130a0001e
:100c2c00100190000201e800f200b20012009800de
:100c3c00000006001130a1006e81500030097800d0
:100c4c0066014100301978003019780030197800ad
:100c5c00301978001130a000000006000018eb00dd
:100c6c000008eb00000006000400fa0010079800d2
:100c7c001e029000c4029000050f78009e027800be
:100c8c0004102400848f52000500320004508000b0
:100c9c000402e80004508800000000000100370046
:100cac00000000000080fa00000006000400fa00ba
:100cbc00100798001e029000140278004322de00f8
:100ccc00040f78001e0278006f0f62003450800011
:100cdc000402e800345088000080fa00000006008e
:020000040000fa
:100cec00400a000020000000000000000008000086
:0c0cfc00400200000000000000000000aa
:020000040000fa
:0200000401f009
:04000000ecbb000055
:020000040000fa
:0200000401f009
:04000400c1ff000038
:020000040000fa
:0200000401f009
:040008004cff0000a9
:020000040000fa
:0200000401f009
:04000c00ffff0000f2
:020000040000fa
:0200000401f009
:04001000ffff0000ee
:020000040000fa
:0200000401f009
:04001400ffff0000ea
:020000040000fa
:0200000401f009
:04001800ffff0000e6
:00000001FF
